:020000040800F2
:1000000000280020150C0008B90B0008BF0B0008E1
:10001000C50B0008CB0B0008D10B00080000000046
:10002000000000000000000000000000D70B0008E6
:10003000E30B000800000000EF0B0008FB0B0008BA
:100040005D0C00085D0C00085D0C00085D0C0008EC
:100050005D0C00085D0C00085D0C00085D0C0008DC
:100060005D0C00085D0C00085D0C00085D0C0008CC
:100070005D0C00085D0C00085D0C00085D0C0008BC
:100080005D0C00085D0C00085D0C00085D0C0008AC
:100090005D0C00085D0C00085D0C00085D0C00089C
:1000A0005D0C00085D0C00085D0C00085D0C00088C
:1000B0005D0C00085D0C0008000000005D0C0008ED
:1000C0005D0C000800000000000000005D0C00084E
:1000D000000000005D0C00085D0C0008000000003E
:1000E0005D0C00085D0C00085D0C000800000000BD
:1000F0000000000000000000000000000000000000
:0C01000000000000000000005FF808F1A3
:10010C0010B5054C237833B9044B13B10448AFF345
:10011C0000800123237010BD0C00002000000000A3
:10012C00681A000808B5034B1BB103490348AFF329
:10013C00008008BD0000000010000020681A0008B4
:10014C0080B582B000AF786039607B68002B40F0DE
:10015C00A9813B68092B00F27F8101A252F823F0A0
:10016C0095010008DD010008250200086D02000859
:10017C00B5020008FD020008450300088D030008C5
:10018C00D50300081D04000800220121C44801F019
:10019C0045F800220221C24801F040F80022042157
:1001AC00BF4801F03BF800220821BD4801F036F8A9
:1001BC0000221021BA4801F031F800222021B84861
:1001CC0001F02CF801224021B54801F027F865E335
:1001DC0001220121B24801F021F800220221B0488D
:1001EC0001F01CF800220421AD4801F017F801229F
:1001FC000821AB4801F012F801221021A84801F0A7
:10020C000DF801222021A64801F008F80122402116
:10021C00A34801F003F841E300220121A04800F0BB
:10022C00FDFF002202219E4800F0F8FF012204216C
:10023C009B4800F0F3FF00220821994800F0EEFFE4
:10024C0000221021964800F0E9FF01222021944859
:10025C0000F0E4FF00224021914800F0DFFF1DE395
:10026C00002201218E4800F0D9FF002202218C4887
:10027C0000F0D4FF00220421894800F0CFFF0022B7
:10028C000821874800F0CAFF01221021844800F0A1
:10029C00C5FF01222021824800F0C0FF002240212E
:1002AC007F4800F0BBFFF9E2012201217C4800F0FD
:1002BC00B5FF002202217A4800F0B0FF0022042191
:1002CC00774800F0ABFF01220821754800F0A6FF2B
:1002DC0001221021724800F0A1FF00222021704859
:1002EC0000F09CFF002240216D4800F097FFD5E202
:1002FC00002201216A4800F091FF01220221684886
:10030C0000F08CFF00220421654800F087FF0022DA
:10031C000821634800F082FF01221021604800F0A0
:10032C007DFF002220215E4800F078FF0022402152
:10033C005B4800F073FFB1E200220121584800F045
:10034C006DFF01220221564800F068FF00220421B3
:10035C00534800F063FF00220821514800F05EFF73
:10036C00002210214E4800F059FF002220214C4859
:10037C0000F054FF00224021494800F04FFF8DE26D
:10038C0000220121464800F049FF00220221444886
:10039C0000F044FF00220421414800F03FFF0122FD
:1003AC0008213F4800F03AFF012210213C4800F0A0
:1003BC0035FF012220213A4800F030FF0122402174
:1003CC00374800F02BFF69E200220121344800F08D
:1003DC0025FF00220221324800F020FF00220421D8
:1003EC002F4800F01BFF002208212D4800F016FFBB
:1003FC00002210212A4800F011FF00222021284859
:10040C0000F00CFF00224021254800F007FF45E2D8
:10041C0000220121224800F001FF00220221204885
:10042C0000F0FCFE002204211D4800F0F7FE002223
:10043C0008211B4800F0F2FE01221021184800F0A0
:10044C00EDFE00222021164800F0E8FE002240219B
:10045C00134800F0E3FE21E201220121104800F0D4
:10046C00DDFE012202210E4800F0D8FE01220421FB
:10047C000B4800F0D3FE00220821094800F0CEFE04
:10048C0000221021064800F0C9FE00222021044859
:10049C0000F0C4FE00224021014800F0BFFEFDE147
:1004AC00000C01407B68012B40F0F7813B68092B65
:1004BC0000F2C88101A252F823F000BFF104000839
:1004CC00470500089D050008F305000849060008CB
:1004DC009F060008F50600084B070008A107000856
:1004EC00F707000800224FF48071D54800F096FE03
:1004FC0000224FF40071D24800F090FE00224FF41D
:10050C008061CF4800F08AFE00224FF40061CC4895
:10051C0000F084FE00224FF48051C94800F07EFEAA
:10052C0000224FF40051C64800F078FE01224FF42F
:10053C008041C34800F072FEB0E101224FF480719B
:10054C00BF4800F06BFE00224FF40071BC4800F075
:10055C0065FE00224FF48061B94800F05FFE012275
:10056C004FF40061B64800F059FE01224FF480515F
:10057C00B34800F053FE01224FF40051B04800F094
:10058C004DFE01224FF48041AD4800F047FE85E15D
:10059C0000224FF48071AA4800F040FE00224FF474
:1005AC000071A74800F03AFE01224FF48061A44884
:1005BC0000F034FE00224FF40061A14800F02EFE42
:1005CC0000224FF480519E4800F028FE01224FF487
:1005DC0000519B4800F022FE00224FF480419848C5
:1005EC0000F01CFE5AE100224FF48071944800F098
:1005FC0015FE00224FF40071914800F00FFE00220E
:10060C004FF480618E4800F009FE00224FF4006127
:10061C008B4800F003FE01224FF48051884800F013
:10062C00FDFD01224FF40051854800F0F7FD00223A
:10063C004FF48041824800F0F1FD2FE101224FF48C
:10064C0080717F4800F0EAFD00224FF400717C4875
:10065C0000F0E4FD00224FF48061794800F0DEFDEB
:10066C0001224FF40061764800F0D8FD01224FF4CE
:10067C008051734800F0D2FD00224FF400517048B5
:10068C0000F0CCFD00224FF480416D4800F0C6FD17
:10069C0004E100224FF48071694800F0BFFD012293
:1006AC004FF40071664800F0B9FD00224FF48061F0
:1006BC00634800F0B3FD00224FF40061604800F085
:1006CC00ADFD01224FF480515D4800F0A7FD0022E2
:1006DC004FF400515A4800F0A1FD00224FF4804124
:1006EC00574800F09BFDD9E000224FF4807154482C
:1006FC0000F094FD01224FF40071514800F08EFD82
:10070C0000224FF480614E4800F088FD00224FF427
:10071C0000614B4800F082FD00224FF480514848A4
:10072C0000F07CFD00224FF40051454800F076FDAE
:10073C0000224FF48041424800F070FDAEE00022F0
:10074C004FF480713E4800F069FD00224FF40071B7
:10075C003B4800F063FD00224FF48061384800F004
:10076C005DFD01224FF40061354800F057FD012278
:10077C004FF48051324800F051FD01224FF40051EA
:10078C002F4800F04BFD01224FF480412C4800F023
:10079C0045FD83E000224FF48071294800F03EFDB6
:1007AC0000224FF40071264800F038FD00224FF46F
:1007BC008061234800F032FD00224FF40061204894
:1007CC0000F02CFD00224FF480511D4800F026FD56
:1007DC0000224FF400511A4800F020FD00224FF483
:1007EC008041174800F01AFD58E000224FF4807148
:1007FC00134800F013FD00224FF40071104800F074
:10080C000DFD00224FF480610D4800F007FD002221
:10081C004FF400610A4800F001FD01224FF48051B1
:10082C00074800F0FBFC00224FF40051044800F094
:10083C00F5FC00224FF48041014800F0EFFC2DE064
:10084C00000C014001224FF48071164800F0E6FCC8
:10085C0001224FF40071134800F0E0FC01224FF428
:10086C008061104800F0DAFC00224FF400610D4862
:10087C0000F0D4FC00224FF480510A4800F0CEFC6A
:10088C0000224FF40051074800F0C8FC00224FF43E
:10089C008041044800F0C2FC00E000BF00BF0837F4
:1008AC00BD4680BD000C014080B586B000AF00F0A5
:1008BC00D1F900F0B1F800F0EBF8002220215548F6
:1008CC0000F0ACFC01224021524800F0A7FC0122B0
:1008DC008021504800F0A2FC01224FF480714D4859
:1008EC0000F09CFC01224FF400714A4800F096FC89
:1008FC0000224FF48061474800F090FC09237B6193
:10090C002FE079690020FFF71BFC7B69033B7B60C0
:10091C007B68002B03DD79680120FFF711FC7B69F4
:10092C00032B17DC7B693B6001224FF48071394843
:10093C0000F074FC00224FF40071364800F06EFC9D
:10094C0001224FF48061334800F068FC39680120C3
:10095C00FFF7F6FB4FF4FA7000F0DEF97B69013B10
:10096C007B617B69002BCCDC01222021294800F023
:10097C0055FC01224021274800F050FC0022802128
:10098C00244800F04BFC00224FF48071214800F009
:10099C0045FC01224FF400711E4800F03FFC01227F
:1009AC004FF480611B4800F039FC09233B612CE0BB
:1009BC0039690120FFF7C4FB3B69033BFB60FB6813
:1009CC00002B03DDF9680020FFF7BAFB3B69032B12
:1009DC0014DC3B69BB60012220210E4800F01EFC98
:1009EC00002240210B4800F019FC0122802109480B
:1009FC0000F014FCB9680020FFF7A2FB4FF4FA706A
:100A0C0000F08AF93B69013B3B613B69002BCFDC71
:100A1C0053E700BF0008014080B590B000AF07F16C
:100A2C00180328220021184601F010F83B1D002263
:100A3C001A605A609A60DA601A610223BB61012362
:100A4C00BB621023FB6200237B6307F1180318467B
:100A5C0000F0FCFB0346002B01D000F06FF80F23D5
:100A6C007B600023BB600023FB6000233B61002301
:100A7C007B613B1D0021184600F068FE0346002BED
:100A8C0001D000F05BF800BF4037BD4680BD0000D0
:100A9C0080B586B000AF07F1080300221A605A60D7
:100AAC009A60DA60224B9B69214A43F004039361FC
:100ABC001F4B9B6903F004037B607B681C4B9B6999
:100ACC001B4A43F008039361194B9B6903F008031D
:100ADC003B603B6800224FF4FC61164800F09EFB23
:100AEC00002247F67F71144800F098FB4FF4FC632A
:100AFC00BB600123FB6000233B6102237B6107F198
:100B0C00080319460B4800F00FFA47F67F73BB60D9
:100B1C000123FB6000233B6102237B6107F1080387
:100B2C001946054800F000FA00BF1837BD4680BDD5
:100B3C000010024000080140000C014080B400AFDE
:100B4C0072B600BFFEE7000080B485B000AF154B55
:100B5C009B69144A43F001039361124B9B6903F0A8
:100B6C000103BB60BB680F4BDB690E4A43F080533B
:100B7C00D3610C4BDB6903F080537B607B680A4BC1
:100B8C005B68FB60FB6823F0E063FB60FB6843F091
:100B9C008063FB60044AFB68536000BF1437BD469A
:100BAC0080BC7047001002400000014080B400AFD0
:100BBC00FEE780B400AFFEE780B400AFFEE780B480
:100BCC0000AFFEE780B400AFFEE780B400AF00BF1B
:100BDC00BD4680BC704780B400AF00BFBD4680BC32
:100BEC00704780B400AF00BFBD4680BC704780B575
:100BFC0000AF00F075F800BF80BD80B400AF00BF3F
:100C0C00BD4680BC70470000FFF7F7FF0B480C494E
:100C1C000C4A002302E0D458C4500433C4188C424C
:100C2C00F9D3094A094C002301E013600432A242B3
:100C3C00FBD300F0E7FEFFF737FE70470000002003
:100C4C000C000020AC1A00080C0000202C00002026
:100C5C00FEE7000080B500AF084B1B68074A43F065
:100C6C0010031360032000F02BF90F2000F008F89C
:100C7C00FFF76AFF0023184680BD00BF002002402A
:100C8C0080B582B000AF7860124B1A68124B1B789B
:100C9C0019464FF47A73B3FBF1F3B2FBF3F3184636
:100CAC0000F035F90346002B01D001230EE07B68E0
:100CBC000F2B0AD8002279684FF0FF3000F00BF9A7
:100CCC00064A7B681360002300E0012318460837AE
:100CDC00BD4680BD0000002008000020040000205C
:100CEC0080B400AF054B1B781A46054B1B681344A8
:100CFC00034A136000BFBD4680BC7047080000204B
:100D0C002800002080B400AF024B1B681846BD467B
:100D1C0080BC70472800002080B584B000AF78609C
:100D2C00FFF7F0FFB8607B68FB60FB68B3F1FF3F37
:100D3C0005D00A4B1B781A46FB681344FB6000BFB6
:100D4C00FFF7E0FF0246BB68D31AFA689A42F7D85D
:100D5C0000BF00BF1037BD4680BD00BF080000209B
:100D6C0080B485B000AF78607B6803F00703FB604C
:100D7C000C4BDB68BB60BA684FF6FF031340BB60DB
:100D8C00FB681A02BB68134343F0BF6343F40033A0
:100D9C00BB60044ABB68D36000BF1437BD4680BC3F
:100DAC00704700BF00ED00E080B400AF044BDB687F
:100DBC001B0A03F007031846BD4680BC704700BFF2
:100DCC0000ED00E080B483B000AF03463960FB71E6
:100DDC0097F90730002B0ADB3B68DAB20C4997F91C
:100DEC0007301201D2B20B4483F800230AE03B68AF
:100DFC00DAB20849FB7903F00F03043B1201D2B2BB
:100E0C000B441A7600BF0C37BD4680BC704700BF40
:100E1C0000E100E000ED00E080B489B000AFF860C4
:100E2C00B9607A60FB6803F00703FB61FB69C3F1EF
:100E3C000703042B28BF0423BB61FB690433062B77
:100E4C0002D9FB69033B00E000237B614FF0FF32CA
:100E5C00BB6902FA03F3DA43BB681A407B699A4018
:100E6C004FF0FF317B6901FA03F3D9437B680B40E8
:100E7C00134318462437BD4680BC704780B582B0FA
:100E8C0000AF78607B68013BB3F1807F01D3012315
:100E9C000FE00A4A7B68013B53600F214FF0FF3093
:100EAC00FFF790FF054B00229A60044B07221A6053
:100EBC00002318460837BD4680BD00BF10E000E097
:100ECC0080B582B000AF78607868FFF749FF00BF4B
:100EDC000837BD4680BD80B586B000AF0346B9600B
:100EEC007A60FB7300237B61FFF75EFF78617A68A1
:100EFC00B9687869FFF790FF024697F90F301146F1
:100F0C001846FFF75FFF00BF1837BD4680BD80B5A0
:100F1C0082B000AF78607868FFF7B0FF03461846E0
:100F2C000837BD4680BD000080B48BB000AF786040
:100F3C00396000237B6200233B6248E101227B6A1B
:100F4C0002FA03F3FB613B681B68FA691340BB614F
:100F5C00BA69FB699A4240F037813B685B68A34AE7
:100F6C0093425ED0A14A934275D8A14A934258D07D
:100F7C009F4A93426FD89F4A934252D09D4A9342C4
:100F8C0069D89D4A93424CD09B4A934263D89B4A62
:100F9C00934246D0994A93425DD8122B2AD8122BF1
:100FAC0059D801A252F823F02F100008091000089C
:100FBC001B1000085D100008631000086310000887
:100FCC006310000863100008631000086310000829
:100FDC006310000863100008631000086310000819
:100FEC00631000086310000863100008111000085B
:100FFC0025100008824A934213D02CE03B68DB6832
:10100C003B6229E03B68DB6804333B6224E03B68CD
:10101C00DB6808333B621FE03B68DB680C333B62E8
:10102C001AE03B689B68002B02D104233B6213E05F
:10103C003B689B68012B05D108233B627B68FA69EE
:10104C001A6109E008233B627B68FA695A6103E084
:10105C0000233B6200E000BFBB69FF2B01D87B681B
:10106C0001E07B6804337B61BB69FF2B02D87B6A90
:10107C009B0002E07B6A083B9B003B617B691A6822
:10108C000F213B6901FA03F3DB431A40396A3B69D0
:10109C0001FA03F31A437B691A603B685B6803F03F
:1010AC008053002B00F09080564B9B69554A43F0BF
:1010BC0001039361534B9B6903F00103BB60BB6855
:1010CC00514A7B6A9B08023352F82330FB607B6ADF
:1010DC0003F003039B000F2202FA03F3DB43FA68CD
:1010EC001340FB607B68494A93420DD07B68484AA9
:1010FC00934207D07B68474A934201D1022304E014
:10110C00032302E0012300E000237A6A02F00302C9
:10111C0092009340FA681343FB603B497B6A9B083F
:10112C000233FA6841F823203B685B6803F48013B0
:10113C00002B06D0384B9A683749BB6913438B6038
:10114C0006E0354B9A68BB69DB43334913408B602F
:10115C003B685B6803F40013002B06D02E4BDA6857
:10116C002D49BB691343CB6006E02B4BDA68BB6996
:10117C00DB4329491340CB603B685B6803F40033C5
:10118C00002B06D0244B5A682349BB6913434B6090
:10119C0006E0214B5A68BB69DB431F4913404B6087
:1011AC003B685B6803F48033002B06D01A4B1A683B
:1011BC001949BB6913430B6006E0174B1A68BB69EE
:1011CC00DB43154913400B607B6A01337B623B6840
:1011DC001A687B6A22FA03F3002B7FF4AFAE00BFD0
:1011EC0000BF2C37BD4680BC704700BF00003210DA
:1011FC00000031100000221000002110000012101D
:10120C0000001110001002400000014000080140D5
:10121C00000C0140001001400004014080B483B078
:10122C0000AF78600B467B8013467B707B78002B7D
:10123C0003D07A887B681A6103E07B881A047B6888
:10124C001A6100BF0C37BD4680BC704780B586B0B4
:10125C0000AF78607B68002B01D101236CE27B68C6
:10126C001B6803F00103002B00F08780924B5B6836
:10127C0003F00C03042B0CD08F4B5B6803F00C03B6
:10128C00082B12D18C4B5B6803F48033B3F5803F91
:10129C000BD1894B1B6803F40033002B6CD07B689B
:1012AC005B68002B68D1012346E27B685B68B3F571
:1012BC00803F06D1804B1B687F4A43F48033136018
:1012CC002EE07B685B68002B0CD17B4B1B687A4A49
:1012DC0023F480331360784B1B68774A23F4802304
:1012EC0013601DE07B685B68B3F5A02F0CD1724BCB
:1012FC001B68714A43F4802313606F4B1B686E4A62
:10130C0043F4803313600BE06B4B1B686A4A23F485
:10131C0080331360684B1B68674A23F48023136087
:10132C007B685B68002B13D0FFF7ECFC386108E09E
:10133C00FFF7E8FC02463B69D31A642B01D903235F
:10134C00FAE15D4B1B6803F40033002BF0D014E082
:10135C00FFF7D8FC386108E0FFF7D4FC02463B6984
:10136C00D31A642B01D90323E6E1534B1B6803F416
:10137C000033002BF0D100E000BF7B681B6803F04A
:10138C000203002B63D04C4B5B6803F00C03002B67
:10139C000BD0494B5B6803F00C03082B1CD1464B5C
:1013AC005B6803F48033002B16D1434B1B6803F0AE
:1013BC000203002B05D07B681B69012B01D0012394
:1013CC00BAE13D4B1B6823F0F8027B685B69DB00DC
:1013DC00394913430B603AE07B681B69002B20D022
:1013EC00364B01221A60FFF78DFC386108E0FFF7DD
:1013FC0089FC02463B69D31A022B01D903239BE1DA
:10140C002D4B1B6803F00203002BF0D02A4B1B68FA
:10141C0023F0F8027B685B69DB00274913430B6000
:10142C0015E0264B00221A60FFF76CFC386108E0CF
:10143C00FFF768FC02463B69D31A022B01D9032340
:10144C007AE11D4B1B6803F00203002BF0D17B6883
:10145C001B6803F00803002B3AD07B689B69002BB8
:10146C0019D0174B01221A60FFF74CFC386108E0C9
:10147C00FFF748FC02463B69D31A022B01D9032320
:10148C005AE10D4B5B6A03F00203002BF0D00120F4
:10149C0000F09AFA1CE00A4B00221A60FFF732FCAB
:1014AC0038610FE0FFF72EFC02463B69D31A022B82
:1014BC0008D9032340E100BF001002400000424263
:1014CC00800442429E4B5B6A03F00203002BE9D17D
:1014DC007B681B6803F00403002B00F0A68000233C
:1014EC00FB75974BDB6903F08053002B0DD1944BAC
:1014FC00DB69934A43F08053D361914BDB6903F072
:10150C008053BB60BB680123FB758E4B1B6803F4D7
:10151C008073002B18D18B4B1B688A4A43F4807361
:10152C001360FFF7EFFB386108E0FFF7EBFB0246B7
:10153C003B69D31A642B01D90323FDE0814B1B6853
:10154C0003F48073002BF0D07B68DB68012B06D191
:10155C007B4B1B6A7A4A43F0010313622DE07B68D4
:10156C00DB68002B0CD1764B1B6A754A23F0010308
:10157C001362734B1B6A724A23F0040313621CE060
:10158C007B68DB68052B0CD16D4B1B6A6C4A43F0F6
:10159C00040313626A4B1B6A694A43F0010313622A
:1015AC000BE0674B1B6A664A23F001031362644B22
:1015BC001B6A634A23F0040313627B68DB68002B0D
:1015CC0015D0FFF79FFB38610AE0FFF79BFB024643
:1015DC003B69D31A41F28832934201D90323ABE021
:1015EC00574B1B6A03F00203002BEED014E0FFF7FD
:1015FC0089FB38610AE0FFF785FB02463B69D31A89
:10160C0041F28832934201D9032395E04C4B1B6A7B
:10161C0003F00203002BEED1FB7D012B05D1484BCF
:10162C00DB69474A23F08053D3617B68DB69002B6D
:10163C0000F08180424B5B6803F00C03082B61D0F7
:10164C007B68DB69022B46D13F4B00221A60FFF707
:10165C0059FB386108E0FFF755FB02463B69D31A8A
:10166C00022B01D9032367E0354B1B6803F0007391
:10167C00002BF0D17B681B6AB3F5803F08D1304B4F
:10168C005B6823F400327B689B682D4913434B60E5
:10169C002B4B5B6823F474127B68196A7B685B6A5A
:1016AC000B43274913434B60274B01221A60FFF76A
:1016BC0029FB386108E0FFF725FB02463B69D31A8A
:1016CC00022B01D9032337E01D4B1B6803F0007379
:1016DC00002BF0D02FE01C4B00221A60FFF712FBFE
:1016EC00386108E0FFF70EFB02463B69D31A022B68
:1016FC0001D9032320E0124B1B6803F00073002B6D
:10170C00F0D118E07B68DB69012B01D1012313E0D8
:10171C000B4B5B68FB60FB6803F480327B681B6AD5
:10172C009A4206D1FB6803F470127B685B6A9A429A
:10173C0001D0012300E0002318461837BD4680BDB8
:10174C0000100240007000406000424280B584B03E
:10175C0000AF786039607B68002B01D10123D0E0A9
:10176C006A4B1B6803F007033A689A4210D9674B1F
:10177C001B6823F0070265493B6813430B60634BFE
:10178C001B6803F007033A689A4201D00123B8E0C2
:10179C007B681B6803F00203002B20D07B681B685E
:1017AC0003F00403002B05D0594B5B68584A43F4F3
:1017BC00E06353607B681B6803F00803002B05D0C3
:1017CC00534B5B68524A43F460535360504B5B6815
:1017DC0023F0F0027B689B684D4913434B607B6898
:1017EC001B6803F00103002B40D07B685B68012B66
:1017FC0007D1474B1B6803F40033002B15D1012391
:10180C007FE07B685B68022B07D1414B1B6803F0C0
:10181C000073002B09D1012373E03D4B1B6803F0CF
:10182C000203002B01D101236BE0394B5B6823F0E1
:10183C0003027B685B68364913434B60FFF762FA1F
:10184C00F8600AE0FFF75EFA0246FB68D31A41F231
:10185C008832934201D9032353E02D4B5B6803F08C
:10186C000C027B685B689B009A42EBD1274B1B6890
:10187C0003F007033A689A4210D2244B1B6823F0FA
:10188C00070222493B6813430B60204B1B6803F093
:10189C0007033A689A4201D0012332E07B681B6847
:1018AC0003F00403002B08D0194B5B6823F4E062AF
:1018BC007B68DB68164913434B607B681B6803F03D
:1018CC000803002B09D0124B5B6823F460527B6831
:1018DC001B69DB000E4913434B6000F021F80246F4
:1018EC000B4B5B681B0903F00F030A49CB5C22FA14
:1018FC0003F3094A1360094B1B681846FFF7C0F93C
:10190C00002318461037BD4680BD00BF00200240A2
:10191C0000100240801A0008000000200400002083
:10192C0080B487B000AF0023FB600023BB600023B2
:10193C007B6100237B6000233B611E4B5B68FB607B
:10194C00FB6803F00C03042B02D0082B03D027E018
:10195C00194B3B6127E0FB689B0C03F00F03174A04
:10196C00D35C7B60FB6803F48033002B10D0114BED
:10197C005B685B0C03F00103114AD35CBB607B68B2
:10198C000D4A02FB03F2BB68B2FBF3F37B6104E08C
:10199C007B680C4A02FB03F37B617B693B6102E0D1
:1019AC00054B3B6100BF3B6918461C37BD4680BCEC
:1019BC00704700BF0010024000127A00901A000815
:1019CC00A01A000800093D0080B485B000AF786013
:1019DC000A4B1B680A4AA2FB03235B0A7A6802FBC8
:1019EC0003F3FB6000BFFB685A1EFA60002BF9D1B1
:1019FC0000BF00BF1437BD4680BC704700000020FC
:101A0C00D34D621070B500260C4D0D4C641BA41008
:101A1C00A64209D100F022F800260A4D0A4C641B9C
:101A2C00A410A64205D170BD55F8043B9847013669
:101A3C00EEE755F8043B98470136F2E7A41A000884
:101A4C00A41A0008A41A0008A81A000803460244A5
:101A5C00934200D1704703F8011BF9E7F8B500BFBA
:101A6C00F8BC08BC9E467047F8B500BFF8BC08BC73
:041A7C009E467047CB
:101A8000000000000000000001020304060708092E
:101A900002030405060708090A0B0C0D0E0F1010AF
:041AA000010200003F
:041AA4003101000804
:041AA8000D01000824
:0C1AAC000024F400100000000100000005
:0400000508000C15CE
:00000001FF
